{
    "_format": "hh-sol-artifact-1",
    "contractName": "EnglishAuction",
    "sourceName": "contracts/EnglishAuctionNFT.sol",
    "abi": [
        {
            "inputs": [],
            "stateMutability": "nonpayable",
            "type": "constructor"
        },
        {
            "anonymous": false,
            "inputs": [
                {
                    "indexed": true,
                    "internalType": "uint256",
                    "name": "ID",
                    "type": "uint256"
                }
            ],
            "name": "AssetDeListed",
            "type": "event"
        },
        {
            "anonymous": false,
            "inputs": [
                {
                    "indexed": true,
                    "internalType": "address",
                    "name": "seller",
                    "type": "address"
                },
                {
                    "indexed": true,
                    "internalType": "uint256",
                    "name": "ID",
                    "type": "uint256"
                },
                {
                    "indexed": false,
                    "internalType": "uint256",
                    "name": "minBid",
                    "type": "uint256"
                },
                {
                    "indexed": false,
                    "internalType": "address",
                    "name": "token",
                    "type": "address"
                }
            ],
            "name": "AssetListed",
            "type": "event"
        },
        {
            "anonymous": false,
            "inputs": [
                {
                    "indexed": true,
                    "internalType": "address",
                    "name": "bidder",
                    "type": "address"
                },
                {
                    "indexed": true,
                    "internalType": "uint256",
                    "name": "ID",
                    "type": "uint256"
                },
                {
                    "indexed": false,
                    "internalType": "uint256",
                    "name": "bid",
                    "type": "uint256"
                },
                {
                    "indexed": false,
                    "internalType": "address",
                    "name": "token",
                    "type": "address"
                }
            ],
            "name": "Bid",
            "type": "event"
        },
        {
            "anonymous": false,
            "inputs": [
                {
                    "indexed": true,
                    "internalType": "address",
                    "name": "bidder",
                    "type": "address"
                },
                {
                    "indexed": true,
                    "internalType": "uint256",
                    "name": "ID",
                    "type": "uint256"
                },
                {
                    "indexed": false,
                    "internalType": "uint256",
                    "name": "amount",
                    "type": "uint256"
                },
                {
                    "indexed": false,
                    "internalType": "address",
                    "name": "token",
                    "type": "address"
                }
            ],
            "name": "BidReturn",
            "type": "event"
        },
        {
            "anonymous": false,
            "inputs": [
                {
                    "indexed": true,
                    "internalType": "address",
                    "name": "previousOwner",
                    "type": "address"
                },
                {
                    "indexed": true,
                    "internalType": "address",
                    "name": "newOwner",
                    "type": "address"
                }
            ],
            "name": "OwnershipTransferred",
            "type": "event"
        },
        {
            "anonymous": false,
            "inputs": [
                {
                    "indexed": true,
                    "internalType": "uint256",
                    "name": "ID",
                    "type": "uint256"
                },
                {
                    "indexed": false,
                    "internalType": "address",
                    "name": "buyer",
                    "type": "address"
                },
                {
                    "indexed": false,
                    "internalType": "uint256",
                    "name": "amount",
                    "type": "uint256"
                },
                {
                    "indexed": false,
                    "internalType": "address",
                    "name": "token",
                    "type": "address"
                }
            ],
            "name": "Sale",
            "type": "event"
        },
        {
            "anonymous": false,
            "inputs": [
                {
                    "indexed": false,
                    "internalType": "address",
                    "name": "_from",
                    "type": "address"
                },
                {
                    "indexed": false,
                    "internalType": "uint256",
                    "name": "ID",
                    "type": "uint256"
                }
            ],
            "name": "TransferReceivedNFT",
            "type": "event"
        },
        {
            "anonymous": false,
            "inputs": [
                {
                    "indexed": false,
                    "internalType": "address",
                    "name": "_from",
                    "type": "address"
                },
                {
                    "indexed": false,
                    "internalType": "uint256",
                    "name": "_amount",
                    "type": "uint256"
                },
                {
                    "indexed": false,
                    "internalType": "address",
                    "name": "token",
                    "type": "address"
                }
            ],
            "name": "TransferReceivedToken",
            "type": "event"
        },
        {
            "anonymous": false,
            "inputs": [
                {
                    "indexed": false,
                    "internalType": "address",
                    "name": "_destAddr",
                    "type": "address"
                },
                {
                    "indexed": false,
                    "internalType": "uint256",
                    "name": "ID",
                    "type": "uint256"
                }
            ],
            "name": "TransferSentNFT",
            "type": "event"
        },
        {
            "anonymous": false,
            "inputs": [
                {
                    "indexed": false,
                    "internalType": "address",
                    "name": "_destAddr",
                    "type": "address"
                },
                {
                    "indexed": false,
                    "internalType": "uint256",
                    "name": "_amount",
                    "type": "uint256"
                },
                {
                    "indexed": false,
                    "internalType": "address",
                    "name": "token",
                    "type": "address"
                }
            ],
            "name": "TransferSentToken",
            "type": "event"
        },
        {
            "anonymous": false,
            "inputs": [
                {
                    "indexed": true,
                    "internalType": "uint256",
                    "name": "ID",
                    "type": "uint256"
                },
                {
                    "indexed": true,
                    "internalType": "address",
                    "name": "seller",
                    "type": "address"
                }
            ],
            "name": "Withdraw",
            "type": "event"
        },
        {
            "inputs": [],
            "name": "IID_IERC1155",
            "outputs": [
                {
                    "internalType": "bytes4",
                    "name": "",
                    "type": "bytes4"
                }
            ],
            "stateMutability": "view",
            "type": "function"
        },
        {
            "inputs": [],
            "name": "IID_IERC165",
            "outputs": [
                {
                    "internalType": "bytes4",
                    "name": "",
                    "type": "bytes4"
                }
            ],
            "stateMutability": "view",
            "type": "function"
        },
        {
            "inputs": [],
            "name": "IID_IERC721",
            "outputs": [
                {
                    "internalType": "bytes4",
                    "name": "",
                    "type": "bytes4"
                }
            ],
            "stateMutability": "view",
            "type": "function"
        },
        {
            "inputs": [],
            "name": "IID_ITEST",
            "outputs": [
                {
                    "internalType": "bytes4",
                    "name": "",
                    "type": "bytes4"
                }
            ],
            "stateMutability": "view",
            "type": "function"
        },
        {
            "inputs": [
                {
                    "internalType": "uint256",
                    "name": "_assetID",
                    "type": "uint256"
                }
            ],
            "name": "finishAuction",
            "outputs": [],
            "stateMutability": "nonpayable",
            "type": "function"
        },
        {
            "inputs": [
                {
                    "internalType": "uint256",
                    "name": "_assetID",
                    "type": "uint256"
                },
                {
                    "internalType": "address",
                    "name": "_tokenContractERC20",
                    "type": "address"
                },
                {
                    "internalType": "address",
                    "name": "_nftAddress",
                    "type": "address"
                },
                {
                    "internalType": "uint256",
                    "name": "_minBid",
                    "type": "uint256"
                },
                {
                    "internalType": "uint256",
                    "name": "_startAt",
                    "type": "uint256"
                },
                {
                    "internalType": "uint256",
                    "name": "_endAt",
                    "type": "uint256"
                }
            ],
            "name": "listAsset",
            "outputs": [],
            "stateMutability": "nonpayable",
            "type": "function"
        },
        {
            "inputs": [],
            "name": "nft",
            "outputs": [
                {
                    "internalType": "contract TokenERC721",
                    "name": "",
                    "type": "address"
                }
            ],
            "stateMutability": "view",
            "type": "function"
        },
        {
            "inputs": [
                {
                    "internalType": "address",
                    "name": "",
                    "type": "address"
                },
                {
                    "internalType": "address",
                    "name": "",
                    "type": "address"
                },
                {
                    "internalType": "uint256",
                    "name": "",
                    "type": "uint256"
                },
                {
                    "internalType": "bytes",
                    "name": "",
                    "type": "bytes"
                }
            ],
            "name": "onERC721Received",
            "outputs": [
                {
                    "internalType": "bytes4",
                    "name": "",
                    "type": "bytes4"
                }
            ],
            "stateMutability": "pure",
            "type": "function"
        },
        {
            "inputs": [],
            "name": "owner",
            "outputs": [
                {
                    "internalType": "address",
                    "name": "",
                    "type": "address"
                }
            ],
            "stateMutability": "view",
            "type": "function"
        },
        {
            "inputs": [
                {
                    "internalType": "uint256",
                    "name": "_assetID",
                    "type": "uint256"
                },
                {
                    "internalType": "uint256",
                    "name": "_bid",
                    "type": "uint256"
                }
            ],
            "name": "placeBid",
            "outputs": [],
            "stateMutability": "nonpayable",
            "type": "function"
        },
        {
            "inputs": [],
            "name": "renounceOwnership",
            "outputs": [],
            "stateMutability": "nonpayable",
            "type": "function"
        },
        {
            "inputs": [
                {
                    "internalType": "bytes4",
                    "name": "interfaceId",
                    "type": "bytes4"
                }
            ],
            "name": "supportsInterface",
            "outputs": [
                {
                    "internalType": "bool",
                    "name": "",
                    "type": "bool"
                }
            ],
            "stateMutability": "view",
            "type": "function"
        },
        {
            "inputs": [],
            "name": "token",
            "outputs": [
                {
                    "internalType": "contract IERC20",
                    "name": "",
                    "type": "address"
                }
            ],
            "stateMutability": "view",
            "type": "function"
        },
        {
            "inputs": [
                {
                    "internalType": "address",
                    "name": "newOwner",
                    "type": "address"
                }
            ],
            "name": "transferOwnership",
            "outputs": [],
            "stateMutability": "nonpayable",
            "type": "function"
        }
    ],
    "bytecode": "0x60806040523480156200001157600080fd5b5062000032620000266200011c60201b60201c565b6200012460201b60201c565b600180819055506200006d7f1de0d71447f13b59c23f5f90092b26c4651cd81e1b011a5a54c2b4508c7fa5da60001b620001e860201b60201c565b620000a17f019a4da81db444d25c737de5a06c0c9cb0a5f829ac853c1e216cd0e61314d35c60001b620001e860201b60201c565b620000d57f827f321c16f00e2c9e22f19e7dd4b57cdb676a6ddb775cc2c5d594434e2a2e5060001b620001e860201b60201c565b33600460006101000a81548173ffffffffffffffffffffffffffffffffffffffff021916908373ffffffffffffffffffffffffffffffffffffffff160217905550620001eb565b600033905090565b60008060009054906101000a900473ffffffffffffffffffffffffffffffffffffffff169050816000806101000a81548173ffffffffffffffffffffffffffffffffffffffff021916908373ffffffffffffffffffffffffffffffffffffffff1602179055508173ffffffffffffffffffffffffffffffffffffffff168173ffffffffffffffffffffffffffffffffffffffff167f8be0079c531659141344cd1fd0a4f28419497f9722a3daafe3b4186f6b6457e060405160405180910390a35050565b50565b6142a680620001fb6000396000f3fe608060405234801561001057600080fd5b50600436106100ea5760003560e01c80638da5cb5b1161008c578063cf266ed011610066578063cf266ed014610227578063e0966dad14610243578063f2fde38b14610261578063fc0c546a1461027d576100ea565b80638da5cb5b146101cd5780639b8cfe52146101eb578063a402783814610209576100ea565b806347ccca02116100c857806347ccca021461016b5780634952e10b1461018957806357c90de5146101a7578063715018a6146101c3576100ea565b806301ffc9a7146100ef5780630c172cb41461011f578063150b7a021461013b575b600080fd5b610109600480360381019061010491906135f6565b61029b565b604051610116919061363e565b60405180910390f35b610139600480360381019061013491906136ed565b6103f1565b005b610155600480360381019061015091906137df565b611024565b6040516101629190613876565b60405180910390f35b6101736110bd565b60405161018091906138f0565b60405180910390f35b6101916110e3565b60405161019e9190613876565b60405180910390f35b6101c160048036038101906101bc919061390b565b611107565b005b6101cb612056565b005b6101d561206a565b6040516101e2919061395a565b60405180910390f35b6101f3612093565b6040516102009190613876565b60405180910390f35b6102116120b7565b60405161021e9190613876565b60405180910390f35b610241600480360381019061023c9190613975565b6120db565b005b61024b612d25565b6040516102589190613876565b60405180910390f35b61027b600480360381019061027691906139a2565b612d49565b005b610285612dcc565b60405161029291906139f0565b60405180910390f35b60006102c97f39337c4b66fe445b427bd4eefd95181706ebe95bd4004ba5a8b6d8f0674fd6cf60001b612df2565b6102f57f0e81ccdf656354f6e33028c6d5f9b06849777ec531bd6b5836d67fa4cfabb41d60001b612df2565b6103217f5b46d1e6d69c3a7b4d3b06cb873ae36f752dfbf7ce52bb30ba7f1b7af28f154260001b612df2565b7ff28ed85e000000000000000000000000000000000000000000000000000000007bffffffffffffffffffffffffffffffffffffffffffffffffffffffff1916827bffffffffffffffffffffffffffffffffffffffffffffffffffffffff191614806103ea57507f01ffc9a7000000000000000000000000000000000000000000000000000000007bffffffffffffffffffffffffffffffffffffffffffffffffffffffff1916827bffffffffffffffffffffffffffffffffffffffffffffffffffffffff1916145b9050919050565b600260015403610436576040517f08c379a000000000000000000000000000000000000000000000000000000000815260040161042d90613a68565b60405180910390fd5b600260018190555061046a7f499d90b74fe1acf5a136379a576fa839f9d703415bbdf47b22cb7a704943a38560001b612df2565b6104967f96f8047bd04fa0947b5b301775d2198cf6e6a819cbf4166ed7e013f23f96524c60001b612df2565b6104c27f6838bcd592d4f5d4eafa6c4e65c2de407c063e2a98c4cec439dfe689f25eb30860001b612df2565b6104ee7f6b77524191e6013e7629b2c7068d58380749d8fcd2784a63e70dafc3b5c19e4a60001b612df2565b428211610530576040517f08c379a000000000000000000000000000000000000000000000000000000000815260040161052790613ad4565b60405180910390fd5b61055c7f0ac457ac922b4895dfbf32d1afa5a643777e3a04d4d722c5e81c0fec31135a5260001b612df2565b6105887f82c5fb485e39552405e0811a4aeb2bea0b91d448c86e3e7df0f7def7072f728160001b612df2565b6105b47fa0de12e6382d575807a1c37d50e43e62f064d45acdc8ffbcf7359372a858065a60001b612df2565b6105e07fc332108533ee3986b92c0a95f95a80813dd0e14c5293f3b4d4e68ec68930d16460001b612df2565b818111610622576040517f08c379a000000000000000000000000000000000000000000000000000000000815260040161061990613b40565b60405180910390fd5b61064e7fe848d974e707e0a2f1bc3f45aa11ed52b126a9f5f8e69b42ff1723b1fe7b155f60001b612df2565b61067a7fd5a11c206c33701e33ce9e417ffca461e245e5ba16598facd4d92f0ee8f28e4a60001b612df2565b6106a67fbbf6634385567190aa021c740339691c9d63812322dfde95a06b5b36dab848c060001b612df2565b6106d27f133f0424761489504acd4b0b491be5d46470a8f6f1a49e0cc131b8189b9ce44960001b612df2565b6106db84612df5565b61071a576040517f08c379a000000000000000000000000000000000000000000000000000000000815260040161071190613bac565b60405180910390fd5b6107467f228b488014fa21dc3c79f950faef60af35e406898da4ae3e2f2c7de49d7d44f660001b612df2565b6107727fcbf0e4220072dc98a20112d39b7d6a9676a8324896d27cace3477a2ebc53737360001b612df2565b61079e7ff5d3b9a1d22af5a1e708e4e1500b8bb26fa99f11a30e8aa03f10840885872d0d60001b612df2565b83600560006101000a81548173ffffffffffffffffffffffffffffffffffffffff021916908373ffffffffffffffffffffffffffffffffffffffff16021790555061080b7f754432ad2767e583926bbcf6749d2896de19066788f93b7610cf388004f0f9be60001b612df2565b6108377f76c621e238c6a4b6b20b6b7ebbd61c6313af2f3669b606bef859e3773c1c2fe260001b612df2565b6108637f961d761c009947df058a1be312f9915e8bd4b57c719eb43c9a58652e4b95b5d160001b612df2565b3373ffffffffffffffffffffffffffffffffffffffff16600560009054906101000a900473ffffffffffffffffffffffffffffffffffffffff1673ffffffffffffffffffffffffffffffffffffffff16636352211e886040518263ffffffff1660e01b81526004016108d59190613bdb565b602060405180830381865afa1580156108f2573d6000803e3d6000fd5b505050506040513d601f19601f820116820180604052508101906109169190613c0b565b73ffffffffffffffffffffffffffffffffffffffff161461096c576040517f08c379a000000000000000000000000000000000000000000000000000000000815260040161096390613c84565b60405180910390fd5b6109987f1dd9f97e6fd8a62c959f33b48f0296f9660f967b4bc28e81576e50780e09094e60001b612df2565b6109c47f6320f081e24da6a0ef23ebadb160cb58df6e85e829468ef007d58a51e284ca6b60001b612df2565b6109f07ff2408a3213273deb09c2e0c99a0b2f39411c83a498488fb9b8a2e1295a8fc88a60001b612df2565b600560009054906101000a900473ffffffffffffffffffffffffffffffffffffffff1673ffffffffffffffffffffffffffffffffffffffff166342842e0e3330896040518463ffffffff1660e01b8152600401610a4f93929190613ca4565b600060405180830381600087803b158015610a6957600080fd5b505af1158015610a7d573d6000803e3d6000fd5b50505050610aad7fd0315d5c5bdef190902b29675339dbb8b13370ae7a7eabae84ebeeb75f90f8bb60001b612df2565b610ad97fa3dd2464c646cf83a47b30a605ca56123a98f7778e1b1c401d14321a10c2edf760001b612df2565b856007600088815260200190815260200160002060000181905550610b207f9b568daf9f1e1f0ea7b239142d8201fd3606d865b667ee83b11d5dec2be8969c60001b612df2565b610b4c7fa4ee8e3d2b9d3e1d09e44b31cd95dbded229b877cf912fb5ac97d585be48102e60001b612df2565b826007600088815260200190815260200160002060010181905550610b937f607c64e604d88aba6c15fc513d8dc7ebe717e9defda479aacbf4b6c52d55403060001b612df2565b610bbf7fc5f8d985af4dcdf130f6d78faa2cdcf25101f177bf2114914eb2d724e7fb529b60001b612df2565b846007600088815260200190815260200160002060020160006101000a81548173ffffffffffffffffffffffffffffffffffffffff021916908373ffffffffffffffffffffffffffffffffffffffff160217905550610c407f46a092d7c9d16466a89fc90642635cc522f5105156501f4165124f703a2c5b9660001b612df2565b610c6c7fec5a2881ce700f46ed902f0a1424c3e386c81c5fbbc67d6a214e1713ea7cf16560001b612df2565b336007600088815260200190815260200160002060030160006101000a81548173ffffffffffffffffffffffffffffffffffffffff021916908373ffffffffffffffffffffffffffffffffffffffff160217905550610ced7f6d15e093568c39f69efde3742aa2841c59a76a79a0cc89b2bb4b08a865cedcac60001b612df2565b610d197fbeb9fdee2c5099d97492d9e9a998ca72135ec641c36e9733d9b314d61d7f0f3760001b612df2565b816007600088815260200190815260200160002060040181905550610d607f8584cc4d18b5535a0ae456ed4bbc6d5b6f3b73602f13a01d323a8cc034d69a4060001b612df2565b610d8c7f3581d4bf3ab3e4a5c77951b26e87d257b68a6c7f880d6757029f140b4ea159c260001b612df2565b806007600088815260200190815260200160002060050181905550610dd37fa8dd046087cd9ec61f7a634250257a4960f1323fae1501f3a439340b671a3f9660001b612df2565b610dff7f58ce19e595d5d0b70c30a3c1af13b5cb3950f99a74548409c0f830a58a7f8e8860001b612df2565b60016007600088815260200190815260200160002060060160006101000a81548160ff021916908315150217905550610e5a7ff9522ef9307dfe551b871c1d2678f3779eef3016f1fac4322d7cc746a5e7573360001b612df2565b610e867f6538d05a108c6d4436739beef5db400555ef23b4b4bf0dc37b9677bf8331f95160001b612df2565b836007600088815260200190815260200160002060090160006101000a81548173ffffffffffffffffffffffffffffffffffffffff021916908373ffffffffffffffffffffffffffffffffffffffff160217905550610f077f91975ff7fd6b8a0fc56d9f2c9fded745b2b5cab5d9401c846d826a632eaf329b60001b612df2565b610f337faa501ff55ced13d8193455dd34355ddc5d80e18b9f7cae405a29a9c66c62dd3a60001b612df2565b7fb4af485e4ffb8e54039893236c3ef5f42787fbf870919572296fbd9e389560ae3387604051610f64929190613cdb565b60405180910390a1610f987f3c828164825a34fd5dbcd872ee85eb53d6e54ee5af5e69337a40af8b1f95f2b060001b612df2565b610fc47f5cf759ac735a7300a3f594a126032d2a4057de157919266732f28a37537479bc60001b612df2565b853373ffffffffffffffffffffffffffffffffffffffff167f4c0e39bac83b9ccebc74b21cb315c527c1f602d7f27339db476f41f8d31126e3858860405161100d929190613d04565b60405180910390a360018081905550505050505050565b60006110527f4e3829108507345931ee018c318929fc388a80977bef4c4717143d327b743a4b60001b612df2565b61107e7f2845bfdbd156f20d7d2b98346175d1b80a3f83267e11bb85318b4b089683fe4360001b612df2565b6110aa7fac00a6acbc69d6db5cb516c9e785351c209036223d6b7bf21420c50b8a45a2f260001b612df2565b63150b7a0260e01b905095945050505050565b600560009054906101000a900473ffffffffffffffffffffffffffffffffffffffff1681565b7ff28ed85e0000000000000000000000000000000000000000000000000000000081565b60026001540361114c576040517f08c379a000000000000000000000000000000000000000000000000000000000815260040161114390613a68565b60405180910390fd5b60026001819055506111807f6e6a29d5e86a4bfc89a4e06fa046e189f04bb51999c2d092831925e3e0ff34cf60001b612df2565b6111ac7f4cdfd730e5d095a52f46560171d9e9a4f52529bdb0e2b390bccdc73bca87c54660001b612df2565b6111d87f036d66b61509edb0f069ef378da21bba0090c13f896f70feea7a2947f0e7ce9160001b612df2565b6112047f52e07d797966faa0d6b5a46ebd59ebae0923d4a0e4d5d3fe18f8b6ab63e9049060001b612df2565b600115156007600084815260200190815260200160002060060160009054906101000a900460ff1615151461126e576040517f08c379a000000000000000000000000000000000000000000000000000000000815260040161126590613d79565b60405180910390fd5b61129a7fbae799df8659604864ceae1f4c568037a21746cf62386e27cd462d23ae7ba8a060001b612df2565b6112c67f9964a0dd8196eec31cd1de8a502cff38bec1611f7c209d1103a536b9aef1be8160001b612df2565b6112f27faea2928e0109fe972792bd443f4c21d9568497fe1e15bbabb589f504fec3138360001b612df2565b61131e7f7ba386a455d576b0d6c97eb84fadd578daef195f2e895129545a55d5eae82f9560001b612df2565b4260076000848152602001908152602001600020600401541115611377576040517f08c379a000000000000000000000000000000000000000000000000000000000815260040161136e90613de5565b60405180910390fd5b6113a37f761653bcf88d7d77258cb58b0735e9a285fc610e0cf8a746588fba4953ca98fd60001b612df2565b6113cf7fa09e91a0ae6121da61ce090865577d503aba26831e135c745f46fb3f392b0f2960001b612df2565b6113fb7fd171bceba18ddda57b1182afdebc68ae2a0ee592148e9b4a4679eed1dfd971bd60001b612df2565b6114277fc5816a8cee1d3de29cbb928347245688b2c0103f298f7cab79a7eab04602ce7860001b612df2565b4260076000848152602001908152602001600020600501541015611480576040517f08c379a000000000000000000000000000000000000000000000000000000000815260040161147790613e51565b60405180910390fd5b6114ac7fedc33d736964be17fb34ebef8cd5860b61b8265dba2e4e97eadd8ec12f5e340160001b612df2565b6114d87fff55841e87fdaf90fcb38fe73bc63d09d42242b168ea16fc87ed11135d0bf2ad60001b612df2565b6115047fda02f6c4ecbb6a3fd3ac7860e6bad5f01158015e60da44b376d7a2b503411f0c60001b612df2565b6115307f3f68782713bd00f93ef65f500dbf7353859d4151481616b487b035d4b08c730a60001b612df2565b80600760008481526020019081526020016000206007015410611588576040517f08c379a000000000000000000000000000000000000000000000000000000000815260040161157f90613ebd565b60405180910390fd5b6115b47f1a0dccfcfed2801f1d00c48edbe0050f721694a8deb0666de5c84ad75610733360001b612df2565b6115e07f876ab868a96f522b10c1baabb05b09f03b6cdc890b622789ff2a9aef983934ed60001b612df2565b61160c7fb26975ac6fe2d27fdb25ac2321ecdf67325949cebafd63ff34c641e01b4275b360001b612df2565b6116387f7a51561c42c6919fd9c83b496b46a3f15a35715336146922fb2fe5a6030732f360001b612df2565b80600760008481526020019081526020016000206001015410611690576040517f08c379a000000000000000000000000000000000000000000000000000000000815260040161168790613f29565b60405180910390fd5b6116bc7f0545f956c226cdd25b9ee3d8d61e24bb10463a213b6f47742f156573fb4d8bb560001b612df2565b6116e87f7d4842d3d617d0b5ee3bb38b002d9599ccd397a777cd6464fd7d6985b6df372c60001b612df2565b6117147fd0511de329bd2fdfdbc80833dd3b76495322d55727827eb70787ddb684acd2aa60001b612df2565b6007600083815260200190815260200160002060020160009054906101000a900473ffffffffffffffffffffffffffffffffffffffff16600660006101000a81548173ffffffffffffffffffffffffffffffffffffffff021916908373ffffffffffffffffffffffffffffffffffffffff1602179055506117b77f998be069bcd847e90f8ab6b14763b42b431287a4a327ad32ce7ccc3c1dd4259260001b612df2565b6117e37f65ab0ab359700fa567d9dc5f6add6c98114ad96e439c376ab0987b71f348f66360001b612df2565b600073ffffffffffffffffffffffffffffffffffffffff166007600084815260200190815260200160002060060160019054906101000a900473ffffffffffffffffffffffffffffffffffffffff1673ffffffffffffffffffffffffffffffffffffffff1614611c03576118797f9773e7cf946926ad2610940ad63cf625fd2c129f3edeb11472a9c272ccd8f27e60001b612df2565b6118a57fa2b1d01fdccb4f64be972d5abf6b0451cb056c2e35314ad3f17ce28c3453d08d60001b612df2565b6118d17fd561111dd9ea43f77312644de4c8e63c07550c45dd8e31306327b46ac8c29e1160001b612df2565b600660009054906101000a900473ffffffffffffffffffffffffffffffffffffffff1673ffffffffffffffffffffffffffffffffffffffff1663a9059cbb6007600085815260200190815260200160002060060160019054906101000a900473ffffffffffffffffffffffffffffffffffffffff1660076000868152602001908152602001600020600701546040518363ffffffff1660e01b815260040161197a929190613f6a565b6020604051808303816000875af1158015611999573d6000803e3d6000fd5b505050506040513d601f19601f820116820180604052508101906119bd9190613fbf565b506119ea7f0ba263141b54bdb8a01ec14d181b17fa50f2cb96e50224a27b1d1853c87b0e6860001b612df2565b611a167fc8a080f6024c4c295efdde266f1ccef9289e6c99fca95ece04ef80c06c77c62160001b612df2565b7f862d8d51f6f433e62f3524b7e9a9cca6a2b5ff1fc88166854e55e7b857ad1fa06007600084815260200190815260200160002060060160019054906101000a900473ffffffffffffffffffffffffffffffffffffffff1660076000858152602001908152602001600020600701546007600086815260200190815260200160002060020160009054906101000a900473ffffffffffffffffffffffffffffffffffffffff16604051611acb93929190613fec565b60405180910390a1611aff7f73b67955b2604ddeb9e9f91f6c8a432979092cc778dafc8df7541aa1b5ec781c60001b612df2565b611b2b7f4c47edcdc6747517e8a057804aef4f23c59ad263be62b6d7374c349bbca4828a60001b612df2565b816007600084815260200190815260200160002060060160019054906101000a900473ffffffffffffffffffffffffffffffffffffffff1673ffffffffffffffffffffffffffffffffffffffff167fd78585dca7efc0696b123b510cfc4b5b574d91dd0ac18b2d8ae0bfdf6cf8f5e960076000868152602001908152602001600020600701546007600087815260200190815260200160002060020160009054906101000a900473ffffffffffffffffffffffffffffffffffffffff16604051611bf6929190613d04565b60405180910390a3611c30565b611c2f7f8fbb92f7ae69d69f9d0c0215bb118eb3818ab39c24d54d39ad98b062340ac43d60001b612df2565b5b611c5c7fc93266d60d49863637197e59e632b95044ee40e41a6308ad648e89a83516781460001b612df2565b611c887f2e975e7c2ba62bc50d1cf71313e3fe12ee8a34e3399e38b7507442748c3d09a960001b612df2565b600660009054906101000a900473ffffffffffffffffffffffffffffffffffffffff1673ffffffffffffffffffffffffffffffffffffffff166323b872dd3330846040518463ffffffff1660e01b8152600401611ce793929190613ca4565b6020604051808303816000875af1158015611d06573d6000803e3d6000fd5b505050506040513d601f19601f82011682018060405250810190611d2a9190613fbf565b50611d577f8a8421469f0ff1a33fa5801699af56bf3dd39edd239690892fe9e8311479620e60001b612df2565b611d837fb429f762c044dc20b69d5b0d0650c30ed5769a24795b6a55b1545ec626d96a2360001b612df2565b7f2e75051b4bea2831bc9f6e84b0a18123b390edf77b7c65e0dd8507e6f20e066533826007600086815260200190815260200160002060020160009054906101000a900473ffffffffffffffffffffffffffffffffffffffff16604051611dec93929190613fec565b60405180910390a1611e207f3b9c9eeb3492fdadac45f9a6834ca5559b2879bc28a909ccce275e63e4cae2f260001b612df2565b611e4c7fd23ba000d12eb0400cdfd3ad061763e756d7eda62a83cc385c43a0490a5d453c60001b612df2565b806007600084815260200190815260200160002060070181905550611e937f727316d965a9eb81098b02624804f06f6e92d9fd10eaaff36efb1170f40fbe9a60001b612df2565b611ebf7f2835f666becd595bd2bf39dacf17e9a64a3748f59877e9c2dc225ba81c48d67560001b612df2565b336007600084815260200190815260200160002060060160016101000a81548173ffffffffffffffffffffffffffffffffffffffff021916908373ffffffffffffffffffffffffffffffffffffffff160217905550611f407f76754fffe1a415224b12d88fa2edcf47804abdf94eec0028d054582bd15a3af760001b612df2565b600760008381526020019081526020016000206008016000815480929190611f6790614052565b9190505550611f987f290104eb77f4c7cbb7bf4d9a8805841d07f2435f59a45d886f7f61011ace55c160001b612df2565b611fc47fade56e4763bed584f5328fd8de5093546aa116f12c421bfe93ddf5626795e16a60001b612df2565b813373ffffffffffffffffffffffffffffffffffffffff167f5118828676a5960cb632c3ded45cd5703dcdee61941d17541ccfdaf4b5d5632f836007600087815260200190815260200160002060020160009054906101000a900473ffffffffffffffffffffffffffffffffffffffff16604051612043929190613d04565b60405180910390a3600180819055505050565b61205e612ecb565b6120686000612f49565b565b60008060009054906101000a900473ffffffffffffffffffffffffffffffffffffffff16905090565b7fd9b67a260000000000000000000000000000000000000000000000000000000081565b7f01ffc9a70000000000000000000000000000000000000000000000000000000081565b600260015403612120576040517f08c379a000000000000000000000000000000000000000000000000000000000815260040161211790613a68565b60405180910390fd5b60026001819055506121547f930db208a5b9df30373c9d4bef6366868fd1d3ebecdebb571c80e24f434e733460001b612df2565b6121807f5af177f031beb03d1520eb3097863d33c08b460913b8c02d044dd868e782aa1460001b612df2565b6121ac7fb62d504ae5498507ed2bac17c4eaf4de08d99e9ee9fc4f052d6ddda2269500f360001b612df2565b6121d87f5b72465fdf235f53a5a0f1da00ce390235d277143d5d8d78b84c6cc49d0074eb60001b612df2565b42600760008381526020019081526020016000206005015410612230576040517f08c379a0000000000000000000000000000000000000000000000000000000008152600401612227906140e6565b60405180910390fd5b61225c7ff7d1499101dd24874e5eac15e14451b5a85aca3265eff096c4e02a58b9cdd07e60001b612df2565b6122887ff7c35b4fa78684f0d462d12d6bd112b00c9444ae1d186cfb43201dbf9eb8bb3460001b612df2565b6122b47fa62165433ef55b348703bdf92aa34edda8a19901d5e5f6d162572cdb54a8045060001b612df2565b6122e07f4e41797ab8f5b718cbd6385a6e9b77efe63e715471e6054caf5dbdb8517060eb60001b612df2565b6007600082815260200190815260200160002060060160009054906101000a900460ff16612343576040517f08c379a000000000000000000000000000000000000000000000000000000000815260040161233a90614152565b60405180910390fd5b61236f7f968819a35b78afa944f4274f0dca2e75918104a01866785a2179467b90d7ea7a60001b612df2565b61239b7f1c81933cb71a73c1d9b59530e1368a146353eff46bc08a06fa74232b3cf32f5760001b612df2565b6123c77fa4d13d32fb366519135248f5b157d90dcd9813578f3f1c182585b5932fe6452260001b612df2565b6007600082815260200190815260200160002060020160009054906101000a900473ffffffffffffffffffffffffffffffffffffffff16600660006101000a81548173ffffffffffffffffffffffffffffffffffffffff021916908373ffffffffffffffffffffffffffffffffffffffff16021790555061246a7fa5e6ce4a5b779f3c1f6e699446f9d10fbbda78207251577b8a6af775e7770eda60001b612df2565b6124967f4578cc3e02e72fd622d573b77e0315577014e456c6cf83ef4301c29da96a5b3960001b612df2565b600760008281526020019081526020016000206001015460076000838152602001908152602001600020600701541115612bbb576124f67f1e50a6923543397597e0d8c25588bc01377fef6da0809e4c708986f3e850421960001b612df2565b6125227f90c0a91aae9c3a89f10aa409e18d7413cc22d157d3ccd98c641e43006b9d57c260001b612df2565b61254e7fff7284cf6e4ca0bf1f540079b882d04cfa469ec2c03f6b8c0a5a7627cbd0c07760001b612df2565b600560009054906101000a900473ffffffffffffffffffffffffffffffffffffffff1673ffffffffffffffffffffffffffffffffffffffff166342842e0e306007600085815260200190815260200160002060060160019054906101000a900473ffffffffffffffffffffffffffffffffffffffff16846040518463ffffffff1660e01b81526004016125e393929190613ca4565b600060405180830381600087803b1580156125fd57600080fd5b505af1158015612611573d6000803e3d6000fd5b505050506126417f3fa68ea695e1d0bbfbad15190877322c61658b93c813c3c3b17bde9c50018b4960001b612df2565b61266d7fc6e5a2796e8f508ff010bb4c5631734fe01bb08b1b9ad1204662fd49a99174f160001b612df2565b7fbc3cc040df7d971a991537583147c9e813f185260bb81f63eac571f96e02ec246007600083815260200190815260200160002060060160019054906101000a900473ffffffffffffffffffffffffffffffffffffffff16826040516126d4929190613cdb565b60405180910390a16127087fd0a0aa12468aba30211d605fcbea1f5ab2b4ee41ab8247307ddaab236730a2b660001b612df2565b6127347fd1e003c85388c50eaa9e6050259c4b48bed4603cdffa28702691b1cd86cc11e360001b612df2565b600660009054906101000a900473ffffffffffffffffffffffffffffffffffffffff1673ffffffffffffffffffffffffffffffffffffffff1663a9059cbb6007600084815260200190815260200160002060030160009054906101000a900473ffffffffffffffffffffffffffffffffffffffff1660076000858152602001908152602001600020600701546040518363ffffffff1660e01b81526004016127dd929190613cdb565b6020604051808303816000875af11580156127fc573d6000803e3d6000fd5b505050506040513d601f19601f820116820180604052508101906128209190613fbf565b5061284d7ff145ce41fca18250123d7e15a61ef6167dd87059f84639116b3a9efc6145eaf860001b612df2565b6128797fff1e0514491ba1cb08ba4a85eca9b2f1b9795237b228015b3014a1dcb69c2df560001b612df2565b7f862d8d51f6f433e62f3524b7e9a9cca6a2b5ff1fc88166854e55e7b857ad1fa06007600083815260200190815260200160002060030160009054906101000a900473ffffffffffffffffffffffffffffffffffffffff1660076000848152602001908152602001600020600701546007600085815260200190815260200160002060020160009054906101000a900473ffffffffffffffffffffffffffffffffffffffff1660405161292e93929190613fec565b60405180910390a16129627ff207683bd7465e4caa773d63857f05c8eae61c6e2170fab761c304ac40bdfaaa60001b612df2565b61298e7f31edbddc82f8fc751621598a9f0cf1f60edbf1eedbf64cc068934d45a1136a4960001b612df2565b6007600082815260200190815260200160002060060160019054906101000a900473ffffffffffffffffffffffffffffffffffffffff1660076000838152602001908152602001600020600a0160006101000a81548173ffffffffffffffffffffffffffffffffffffffff021916908373ffffffffffffffffffffffffffffffffffffffff160217905550612a457f65f6a25bae673918234bcc330212157500ce807304f847b58bc11c55ebe73afe60001b612df2565b612a717f24571b6c12270d689108966b17fab13daf12c941cc8eb0985d9b2a67b9aebb8260001b612df2565b60006007600083815260200190815260200160002060060160006101000a81548160ff021916908315150217905550612acc7f0e6c1c4d520e1006db8e821206aa49b43d07765fac60442fc36afec9dcf884d760001b612df2565b612af87f031021b381e6b819b4d89f2a8bb64c9a033c6c15bdc1376bd278cc3586e1b61160001b612df2565b807f32f7b044435b2d94e8c17f628139122168d1865cdb7db2c415954204211d40e16007600084815260200190815260200160002060060160019054906101000a900473ffffffffffffffffffffffffffffffffffffffff1660076000858152602001908152602001600020600701546007600086815260200190815260200160002060020160009054906101000a900473ffffffffffffffffffffffffffffffffffffffff16604051612bae93929190613fec565b60405180910390a2612d1b565b612be77f43440fc09f18a0e6368b1b7a163c8f21af4a4b3e6f1c861ccc734683ec6e43b060001b612df2565b612c137f4ff56a2bf917dc35d9acee481a104e656dcf8309611041ceb426fc8fba24febb60001b612df2565b612c3f7f65a2c02108098f9e9e2a7531b910d5b64b4dc38eeb431eab20f27393590d43c360001b612df2565b612c488161300d565b612c747f9ddc7f2ebe0fbfbcdf637b6cd2a245a8edc4fe61ad03ecbe380a5846d3a22e3260001b612df2565b612ca07ff006a07d4489718b8e6658dc58492ad3cabe1d8b6885fbb3c6f9c7589f3c621c60001b612df2565b6007600082815260200190815260200160002060030160009054906101000a900473ffffffffffffffffffffffffffffffffffffffff1673ffffffffffffffffffffffffffffffffffffffff16817f8353ffcac0876ad14e226d9783c04540bfebf13871e868157d2a391cad98e91860405160405180910390a35b6001808190555050565b7f80ac58cd0000000000000000000000000000000000000000000000000000000081565b612d51612ecb565b600073ffffffffffffffffffffffffffffffffffffffff168173ffffffffffffffffffffffffffffffffffffffff1603612dc0576040517f08c379a0000000000000000000000000000000000000000000000000000000008152600401612db7906141e4565b60405180910390fd5b612dc981612f49565b50565b600660009054906101000a900473ffffffffffffffffffffffffffffffffffffffff1681565b50565b6000612e237f057f0778a782edd881c13def1794335fb585d18f4c414d4d73cbb134ccf83f8a60001b612df2565b612e4f7f55f3aa769badf160d792e094e75ebd8a023ea4703dc7f68ba409a6e48813653b60001b612df2565b612e7b7fc344c80cdf872d60c02249ca143af08a729bfe0fa90edae98244a824d45511dc60001b612df2565b612ec47f80ac58cd000000000000000000000000000000000000000000000000000000008373ffffffffffffffffffffffffffffffffffffffff1661345b90919063ffffffff16565b9050919050565b612ed3613480565b73ffffffffffffffffffffffffffffffffffffffff16612ef161206a565b73ffffffffffffffffffffffffffffffffffffffff1614612f47576040517f08c379a0000000000000000000000000000000000000000000000000000000008152600401612f3e90614250565b60405180910390fd5b565b60008060009054906101000a900473ffffffffffffffffffffffffffffffffffffffff169050816000806101000a81548173ffffffffffffffffffffffffffffffffffffffff021916908373ffffffffffffffffffffffffffffffffffffffff1602179055508173ffffffffffffffffffffffffffffffffffffffff168173ffffffffffffffffffffffffffffffffffffffff167f8be0079c531659141344cd1fd0a4f28419497f9722a3daafe3b4186f6b6457e060405160405180910390a35050565b6130397f086c256828f6006355b00f37a3895b7e41e434ccbd9008784459d569f45c1c8b60001b612df2565b6130657fc6167a357d013ab21dedc4d163edadc5c56db37e7c104fa839808b04a3e4b67360001b612df2565b6130917f3e98902f6d24b6e9a1fb8b96f89d87e165f47e3a3adaf0bc5a7a426a4623961b60001b612df2565b6007600082815260200190815260200160002060090160009054906101000a900473ffffffffffffffffffffffffffffffffffffffff16600560006101000a81548173ffffffffffffffffffffffffffffffffffffffff021916908373ffffffffffffffffffffffffffffffffffffffff1602179055506131347f1fcc0381d30a636bf4b3a6183bb5ed97d0de9ebcdd9d8c3901f23c21a1f4d48860001b612df2565b6131607ff0d43f0ac6694cfbc13bf0c151484aea35c7f0f4eee871614431c1bd63b7026260001b612df2565b600560009054906101000a900473ffffffffffffffffffffffffffffffffffffffff1673ffffffffffffffffffffffffffffffffffffffff166342842e0e306007600085815260200190815260200160002060030160009054906101000a900473ffffffffffffffffffffffffffffffffffffffff16846040518463ffffffff1660e01b81526004016131f593929190613ca4565b600060405180830381600087803b15801561320f57600080fd5b505af1158015613223573d6000803e3d6000fd5b505050506132537f894d8975f98aafae072cd812f211d297206baffc929c250901a787c6fc2cfa1460001b612df2565b61327f7f4134ace46084e40f01bdc88729bb87898463f3d3b80984c36b9a49d0afd8384060001b612df2565b7fbc3cc040df7d971a991537583147c9e813f185260bb81f63eac571f96e02ec246007600083815260200190815260200160002060030160009054906101000a900473ffffffffffffffffffffffffffffffffffffffff16826040516132e6929190613cdb565b60405180910390a161331a7f2c5086a68a03589109430702a240680d4914062e64ac70cd837cde4597b9d22660001b612df2565b6133467faf49729dac93444a768b86093584fb27b195a2f081a6e8aea500e87071786e4960001b612df2565b6007600082815260200190815260200160002060030160009054906101000a900473ffffffffffffffffffffffffffffffffffffffff1660076000838152602001908152602001600020600a0160006101000a81548173ffffffffffffffffffffffffffffffffffffffff021916908373ffffffffffffffffffffffffffffffffffffffff1602179055506133fd7f2322489787361d25163384b7d232b0f4fc7f6c41dd93f015386130a2acc9819860001b612df2565b6134297f7ceec4bd64d45d4b79e8a78a605d64fd099640ab2707c42100fb2f47b7301c5860001b612df2565b60006007600083815260200190815260200160002060060160006101000a81548160ff02191690831515021790555050565b600061346683613488565b8015613478575061347783836134d5565b5b905092915050565b600033905090565b60006134b4827f01ffc9a7000000000000000000000000000000000000000000000000000000006134d5565b80156134ce57506134cc8263ffffffff60e01b6134d5565b155b9050919050565b6000806301ffc9a760e01b836040516024016134f19190613876565b604051602081830303815290604052907bffffffffffffffffffffffffffffffffffffffffffffffffffffffff19166020820180517bffffffffffffffffffffffffffffffffffffffffffffffffffffffff838183161783525050505090506000806000602060008551602087018a617530fa92503d9150600051905082801561357c575060208210155b80156135885750600081115b94505050505092915050565b600080fd5b600080fd5b60007fffffffff0000000000000000000000000000000000000000000000000000000082169050919050565b6135d38161359e565b81146135de57600080fd5b50565b6000813590506135f0816135ca565b92915050565b60006020828403121561360c5761360b613594565b5b600061361a848285016135e1565b91505092915050565b60008115159050919050565b61363881613623565b82525050565b6000602082019050613653600083018461362f565b92915050565b6000819050919050565b61366c81613659565b811461367757600080fd5b50565b60008135905061368981613663565b92915050565b600073ffffffffffffffffffffffffffffffffffffffff82169050919050565b60006136ba8261368f565b9050919050565b6136ca816136af565b81146136d557600080fd5b50565b6000813590506136e7816136c1565b92915050565b60008060008060008060c0878903121561370a57613709613594565b5b600061371889828a0161367a565b965050602061372989828a016136d8565b955050604061373a89828a016136d8565b945050606061374b89828a0161367a565b935050608061375c89828a0161367a565b92505060a061376d89828a0161367a565b9150509295509295509295565b600080fd5b600080fd5b600080fd5b60008083601f84011261379f5761379e61377a565b5b8235905067ffffffffffffffff8111156137bc576137bb61377f565b5b6020830191508360018202830111156137d8576137d7613784565b5b9250929050565b6000806000806000608086880312156137fb576137fa613594565b5b6000613809888289016136d8565b955050602061381a888289016136d8565b945050604061382b8882890161367a565b935050606086013567ffffffffffffffff81111561384c5761384b613599565b5b61385888828901613789565b92509250509295509295909350565b6138708161359e565b82525050565b600060208201905061388b6000830184613867565b92915050565b6000819050919050565b60006138b66138b16138ac8461368f565b613891565b61368f565b9050919050565b60006138c88261389b565b9050919050565b60006138da826138bd565b9050919050565b6138ea816138cf565b82525050565b600060208201905061390560008301846138e1565b92915050565b6000806040838503121561392257613921613594565b5b60006139308582860161367a565b92505060206139418582860161367a565b9150509250929050565b613954816136af565b82525050565b600060208201905061396f600083018461394b565b92915050565b60006020828403121561398b5761398a613594565b5b60006139998482850161367a565b91505092915050565b6000602082840312156139b8576139b7613594565b5b60006139c6848285016136d8565b91505092915050565b60006139da826138bd565b9050919050565b6139ea816139cf565b82525050565b6000602082019050613a0560008301846139e1565b92915050565b600082825260208201905092915050565b7f5265656e7472616e637947756172643a207265656e7472616e742063616c6c00600082015250565b6000613a52601f83613a0b565b9150613a5d82613a1c565b602082019050919050565b60006020820190508181036000830152613a8181613a45565b9050919050565b7f667574757265207374617274206f6e6c79000000000000000000000000000000600082015250565b6000613abe601183613a0b565b9150613ac982613a88565b602082019050919050565b60006020820190508181036000830152613aed81613ab1565b9050919050565b7f656e647320616674657220737461727473206f6e6c7900000000000000000000600082015250565b6000613b2a601683613a0b565b9150613b3582613af4565b602082019050919050565b60006020820190508181036000830152613b5981613b1d565b9050919050565b7f6e6f7420616e2045524337323100000000000000000000000000000000000000600082015250565b6000613b96600d83613a0b565b9150613ba182613b60565b602082019050919050565b60006020820190508181036000830152613bc581613b89565b9050919050565b613bd581613659565b82525050565b6000602082019050613bf06000830184613bcc565b92915050565b600081519050613c05816136c1565b92915050565b600060208284031215613c2157613c20613594565b5b6000613c2f84828501613bf6565b91505092915050565b7f6f6e6c79206f776e657200000000000000000000000000000000000000000000600082015250565b6000613c6e600a83613a0b565b9150613c7982613c38565b602082019050919050565b60006020820190508181036000830152613c9d81613c61565b9050919050565b6000606082019050613cb9600083018661394b565b613cc6602083018561394b565b613cd36040830184613bcc565b949350505050565b6000604082019050613cf0600083018561394b565b613cfd6020830184613bcc565b9392505050565b6000604082019050613d196000830185613bcc565b613d26602083018461394b565b9392505050565b7f6173736574206e6f74206c697374656400000000000000000000000000000000600082015250565b6000613d63601083613a0b565b9150613d6e82613d2d565b602082019050919050565b60006020820190508181036000830152613d9281613d56565b9050919050565b7f61756374696f6e2079657420746f207374617274000000000000000000000000600082015250565b6000613dcf601483613a0b565b9150613dda82613d99565b602082019050919050565b60006020820190508181036000830152613dfe81613dc2565b9050919050565b7f61756374696f6e20656e64656400000000000000000000000000000000000000600082015250565b6000613e3b600d83613a0b565b9150613e4682613e05565b602082019050919050565b60006020820190508181036000830152613e6a81613e2e565b9050919050565b7f6c61737420626964206973206869676865720000000000000000000000000000600082015250565b6000613ea7601283613a0b565b9150613eb282613e71565b602082019050919050565b60006020820190508181036000830152613ed681613e9a565b9050919050565b7f6d696e2062696420697320686967686572000000000000000000000000000000600082015250565b6000613f13601183613a0b565b9150613f1e82613edd565b602082019050919050565b60006020820190508181036000830152613f4281613f06565b9050919050565b6000613f54826138bd565b9050919050565b613f6481613f49565b82525050565b6000604082019050613f7f6000830185613f5b565b613f8c6020830184613bcc565b9392505050565b613f9c81613623565b8114613fa757600080fd5b50565b600081519050613fb981613f93565b92915050565b600060208284031215613fd557613fd4613594565b5b6000613fe384828501613faa565b91505092915050565b6000606082019050614001600083018661394b565b61400e6020830185613bcc565b61401b604083018461394b565b949350505050565b7f4e487b7100000000000000000000000000000000000000000000000000000000600052601160045260246000fd5b600061405d82613659565b91507fffffffffffffffffffffffffffffffffffffffffffffffffffffffffffffffff820361408f5761408e614023565b5b600182019050919050565b7f61756374696f6e20696e2070726f677265737300000000000000000000000000600082015250565b60006140d0601383613a0b565b91506140db8261409a565b602082019050919050565b600060208201905081810360008301526140ff816140c3565b9050919050565b7f6e6f6e206c697374656420617373657400000000000000000000000000000000600082015250565b600061413c601083613a0b565b915061414782614106565b602082019050919050565b6000602082019050818103600083015261416b8161412f565b9050919050565b7f4f776e61626c653a206e6577206f776e657220697320746865207a65726f206160008201527f6464726573730000000000000000000000000000000000000000000000000000602082015250565b60006141ce602683613a0b565b91506141d982614172565b604082019050919050565b600060208201905081810360008301526141fd816141c1565b9050919050565b7f4f776e61626c653a2063616c6c6572206973206e6f7420746865206f776e6572600082015250565b600061423a602083613a0b565b915061424582614204565b602082019050919050565b600060208201905081810360008301526142698161422d565b905091905056fea26469706673582212206a8abda5a38db4f1f6bee33c2c34f0ce19c179030e315f95843d7f95047854b364736f6c63430008110033",
    "linkReferences": {},
    "deployedLinkReferences": {}
}