{
    "_format": "hh-sol-artifact-1",
    "contractName": "ERCStandard20",
    "sourceName": "contracts/ERCStandart20.sol",
    "abi": [
        {
            "inputs": [
                {
                    "internalType": "string",
                    "name": "name_",
                    "type": "string"
                },
                {
                    "internalType": "string",
                    "name": "symbol_",
                    "type": "string"
                }
            ],
            "stateMutability": "nonpayable",
            "type": "constructor"
        },
        {
            "anonymous": false,
            "inputs": [
                {
                    "indexed": true,
                    "internalType": "address",
                    "name": "owner",
                    "type": "address"
                },
                {
                    "indexed": true,
                    "internalType": "address",
                    "name": "spender",
                    "type": "address"
                },
                {
                    "indexed": false,
                    "internalType": "uint256",
                    "name": "_value",
                    "type": "uint256"
                }
            ],
            "name": "Approval",
            "type": "event"
        },
        {
            "anonymous": false,
            "inputs": [
                {
                    "indexed": true,
                    "internalType": "bytes32",
                    "name": "role",
                    "type": "bytes32"
                },
                {
                    "indexed": true,
                    "internalType": "bytes32",
                    "name": "previousAdminRole",
                    "type": "bytes32"
                },
                {
                    "indexed": true,
                    "internalType": "bytes32",
                    "name": "newAdminRole",
                    "type": "bytes32"
                }
            ],
            "name": "RoleAdminChanged",
            "type": "event"
        },
        {
            "anonymous": false,
            "inputs": [
                {
                    "indexed": true,
                    "internalType": "bytes32",
                    "name": "role",
                    "type": "bytes32"
                },
                {
                    "indexed": true,
                    "internalType": "address",
                    "name": "account",
                    "type": "address"
                },
                {
                    "indexed": true,
                    "internalType": "address",
                    "name": "sender",
                    "type": "address"
                }
            ],
            "name": "RoleGranted",
            "type": "event"
        },
        {
            "anonymous": false,
            "inputs": [
                {
                    "indexed": true,
                    "internalType": "bytes32",
                    "name": "role",
                    "type": "bytes32"
                },
                {
                    "indexed": true,
                    "internalType": "address",
                    "name": "account",
                    "type": "address"
                },
                {
                    "indexed": true,
                    "internalType": "address",
                    "name": "sender",
                    "type": "address"
                }
            ],
            "name": "RoleRevoked",
            "type": "event"
        },
        {
            "anonymous": false,
            "inputs": [
                {
                    "indexed": true,
                    "internalType": "address",
                    "name": "from",
                    "type": "address"
                },
                {
                    "indexed": true,
                    "internalType": "address",
                    "name": "to",
                    "type": "address"
                },
                {
                    "indexed": false,
                    "internalType": "uint256",
                    "name": "value",
                    "type": "uint256"
                }
            ],
            "name": "Transfer",
            "type": "event"
        },
        {
            "inputs": [],
            "name": "DEFAULT_ADMIN_ROLE",
            "outputs": [
                {
                    "internalType": "bytes32",
                    "name": "",
                    "type": "bytes32"
                }
            ],
            "stateMutability": "view",
            "type": "function"
        },
        {
            "inputs": [],
            "name": "MINTER_ROLE",
            "outputs": [
                {
                    "internalType": "bytes32",
                    "name": "",
                    "type": "bytes32"
                }
            ],
            "stateMutability": "view",
            "type": "function"
        },
        {
            "inputs": [
                {
                    "internalType": "address",
                    "name": "_owner",
                    "type": "address"
                },
                {
                    "internalType": "address",
                    "name": "_spender",
                    "type": "address"
                }
            ],
            "name": "allowance",
            "outputs": [
                {
                    "internalType": "uint256",
                    "name": "",
                    "type": "uint256"
                }
            ],
            "stateMutability": "view",
            "type": "function"
        },
        {
            "inputs": [
                {
                    "internalType": "address",
                    "name": "_spender",
                    "type": "address"
                },
                {
                    "internalType": "uint256",
                    "name": "_amount",
                    "type": "uint256"
                }
            ],
            "name": "approve",
            "outputs": [
                {
                    "internalType": "bool",
                    "name": "",
                    "type": "bool"
                }
            ],
            "stateMutability": "nonpayable",
            "type": "function"
        },
        {
            "inputs": [
                {
                    "internalType": "address",
                    "name": "account",
                    "type": "address"
                }
            ],
            "name": "balanceOf",
            "outputs": [
                {
                    "internalType": "uint256",
                    "name": "",
                    "type": "uint256"
                }
            ],
            "stateMutability": "view",
            "type": "function"
        },
        {
            "inputs": [
                {
                    "internalType": "address",
                    "name": "account",
                    "type": "address"
                },
                {
                    "internalType": "uint256",
                    "name": "amount",
                    "type": "uint256"
                }
            ],
            "name": "burn",
            "outputs": [
                {
                    "internalType": "bool",
                    "name": "",
                    "type": "bool"
                }
            ],
            "stateMutability": "nonpayable",
            "type": "function"
        },
        {
            "inputs": [],
            "name": "decimals",
            "outputs": [
                {
                    "internalType": "uint256",
                    "name": "",
                    "type": "uint256"
                }
            ],
            "stateMutability": "view",
            "type": "function"
        },
        {
            "inputs": [
                {
                    "internalType": "address",
                    "name": "spender",
                    "type": "address"
                },
                {
                    "internalType": "uint256",
                    "name": "subtractedValue",
                    "type": "uint256"
                }
            ],
            "name": "decreaseAllowance",
            "outputs": [
                {
                    "internalType": "bool",
                    "name": "",
                    "type": "bool"
                }
            ],
            "stateMutability": "nonpayable",
            "type": "function"
        },
        {
            "inputs": [
                {
                    "internalType": "bytes32",
                    "name": "role",
                    "type": "bytes32"
                }
            ],
            "name": "getRoleAdmin",
            "outputs": [
                {
                    "internalType": "bytes32",
                    "name": "",
                    "type": "bytes32"
                }
            ],
            "stateMutability": "view",
            "type": "function"
        },
        {
            "inputs": [
                {
                    "internalType": "bytes32",
                    "name": "role",
                    "type": "bytes32"
                },
                {
                    "internalType": "address",
                    "name": "account",
                    "type": "address"
                }
            ],
            "name": "grantRole",
            "outputs": [],
            "stateMutability": "nonpayable",
            "type": "function"
        },
        {
            "inputs": [
                {
                    "internalType": "bytes32",
                    "name": "role",
                    "type": "bytes32"
                },
                {
                    "internalType": "address",
                    "name": "account",
                    "type": "address"
                }
            ],
            "name": "hasRole",
            "outputs": [
                {
                    "internalType": "bool",
                    "name": "",
                    "type": "bool"
                }
            ],
            "stateMutability": "view",
            "type": "function"
        },
        {
            "inputs": [
                {
                    "internalType": "address",
                    "name": "_spender",
                    "type": "address"
                },
                {
                    "internalType": "uint256",
                    "name": "_amount",
                    "type": "uint256"
                }
            ],
            "name": "increaseAllowance",
            "outputs": [
                {
                    "internalType": "bool",
                    "name": "",
                    "type": "bool"
                }
            ],
            "stateMutability": "nonpayable",
            "type": "function"
        },
        {
            "inputs": [
                {
                    "internalType": "address",
                    "name": "account",
                    "type": "address"
                },
                {
                    "internalType": "uint256",
                    "name": "amount",
                    "type": "uint256"
                }
            ],
            "name": "mint",
            "outputs": [
                {
                    "internalType": "bool",
                    "name": "",
                    "type": "bool"
                }
            ],
            "stateMutability": "nonpayable",
            "type": "function"
        },
        {
            "inputs": [],
            "name": "name",
            "outputs": [
                {
                    "internalType": "string",
                    "name": "",
                    "type": "string"
                }
            ],
            "stateMutability": "view",
            "type": "function"
        },
        {
            "inputs": [
                {
                    "internalType": "bytes32",
                    "name": "role",
                    "type": "bytes32"
                },
                {
                    "internalType": "address",
                    "name": "account",
                    "type": "address"
                }
            ],
            "name": "renounceRole",
            "outputs": [],
            "stateMutability": "nonpayable",
            "type": "function"
        },
        {
            "inputs": [
                {
                    "internalType": "bytes32",
                    "name": "role",
                    "type": "bytes32"
                },
                {
                    "internalType": "address",
                    "name": "account",
                    "type": "address"
                }
            ],
            "name": "revokeRole",
            "outputs": [],
            "stateMutability": "nonpayable",
            "type": "function"
        },
        {
            "inputs": [
                {
                    "internalType": "bytes4",
                    "name": "interfaceId",
                    "type": "bytes4"
                }
            ],
            "name": "supportsInterface",
            "outputs": [
                {
                    "internalType": "bool",
                    "name": "",
                    "type": "bool"
                }
            ],
            "stateMutability": "view",
            "type": "function"
        },
        {
            "inputs": [],
            "name": "symbol",
            "outputs": [
                {
                    "internalType": "string",
                    "name": "",
                    "type": "string"
                }
            ],
            "stateMutability": "view",
            "type": "function"
        },
        {
            "inputs": [],
            "name": "totalSupply",
            "outputs": [
                {
                    "internalType": "uint256",
                    "name": "",
                    "type": "uint256"
                }
            ],
            "stateMutability": "view",
            "type": "function"
        },
        {
            "inputs": [
                {
                    "internalType": "address",
                    "name": "_to",
                    "type": "address"
                },
                {
                    "internalType": "uint256",
                    "name": "_value",
                    "type": "uint256"
                }
            ],
            "name": "transfer",
            "outputs": [
                {
                    "internalType": "bool",
                    "name": "",
                    "type": "bool"
                }
            ],
            "stateMutability": "nonpayable",
            "type": "function"
        },
        {
            "inputs": [
                {
                    "internalType": "address",
                    "name": "_from",
                    "type": "address"
                },
                {
                    "internalType": "address",
                    "name": "_to",
                    "type": "address"
                },
                {
                    "internalType": "uint256",
                    "name": "_value",
                    "type": "uint256"
                }
            ],
            "name": "transferFrom",
            "outputs": [
                {
                    "internalType": "bool",
                    "name": "",
                    "type": "bool"
                }
            ],
            "stateMutability": "nonpayable",
            "type": "function"
        }
    ],
    "bytecode": "0x608060405260126004553480156200001657600080fd5b5060405162002ee338038062002ee383398181016040528101906200003c919062000458565b6200006e7f9f2df0fed2c77648de5860a4cc508cd0818c85b8b8a1ab4ceeef8d981c8956a6336200014c60201b60201c565b81600190816200007f919062000728565b50806002908162000091919062000728565b506103e860038190555033600560006101000a81548173ffffffffffffffffffffffffffffffffffffffff021916908373ffffffffffffffffffffffffffffffffffffffff16021790555060035460066000600560009054906101000a900473ffffffffffffffffffffffffffffffffffffffff1673ffffffffffffffffffffffffffffffffffffffff1673ffffffffffffffffffffffffffffffffffffffff1681526020019081526020016000208190555050506200080f565b6200015e82826200016260201b60201c565b5050565b6200017482826200025360201b60201c565b6200024f57600160008084815260200190815260200160002060000160008373ffffffffffffffffffffffffffffffffffffffff1673ffffffffffffffffffffffffffffffffffffffff16815260200190815260200160002060006101000a81548160ff021916908315150217905550620001f4620002bd60201b60201c565b73ffffffffffffffffffffffffffffffffffffffff168173ffffffffffffffffffffffffffffffffffffffff16837f2f8788117e7eff1d82e926ec794901d17c78024a50270940304540a733656f0d60405160405180910390a45b5050565b600080600084815260200190815260200160002060000160008373ffffffffffffffffffffffffffffffffffffffff1673ffffffffffffffffffffffffffffffffffffffff16815260200190815260200160002060009054906101000a900460ff16905092915050565b600033905090565b6000604051905090565b600080fd5b600080fd5b600080fd5b600080fd5b6000601f19601f8301169050919050565b7f4e487b7100000000000000000000000000000000000000000000000000000000600052604160045260246000fd5b6200032e82620002e3565b810181811067ffffffffffffffff8211171562000350576200034f620002f4565b5b80604052505050565b600062000365620002c5565b905062000373828262000323565b919050565b600067ffffffffffffffff821115620003965762000395620002f4565b5b620003a182620002e3565b9050602081019050919050565b60005b83811015620003ce578082015181840152602081019050620003b1565b60008484015250505050565b6000620003f1620003eb8462000378565b62000359565b90508281526020810184848401111562000410576200040f620002de565b5b6200041d848285620003ae565b509392505050565b600082601f8301126200043d576200043c620002d9565b5b81516200044f848260208601620003da565b91505092915050565b60008060408385031215620004725762000471620002cf565b5b600083015167ffffffffffffffff811115620004935762000492620002d4565b5b620004a18582860162000425565b925050602083015167ffffffffffffffff811115620004c557620004c4620002d4565b5b620004d38582860162000425565b9150509250929050565b600081519050919050565b7f4e487b7100000000000000000000000000000000000000000000000000000000600052602260045260246000fd5b600060028204905060018216806200053057607f821691505b602082108103620005465762000545620004e8565b5b50919050565b60008190508160005260206000209050919050565b60006020601f8301049050919050565b600082821b905092915050565b600060088302620005b07fffffffffffffffffffffffffffffffffffffffffffffffffffffffffffffffff8262000571565b620005bc868362000571565b95508019841693508086168417925050509392505050565b6000819050919050565b6000819050919050565b60006200060962000603620005fd84620005d4565b620005de565b620005d4565b9050919050565b6000819050919050565b6200062583620005e8565b6200063d620006348262000610565b8484546200057e565b825550505050565b600090565b6200065462000645565b620006618184846200061a565b505050565b5b8181101562000689576200067d6000826200064a565b60018101905062000667565b5050565b601f821115620006d857620006a2816200054c565b620006ad8462000561565b81016020851015620006bd578190505b620006d5620006cc8562000561565b83018262000666565b50505b505050565b600082821c905092915050565b6000620006fd60001984600802620006dd565b1980831691505092915050565b6000620007188383620006ea565b9150826002028217905092915050565b6200073382620004dd565b67ffffffffffffffff8111156200074f576200074e620002f4565b5b6200075b825462000517565b620007688282856200068d565b600060209050601f831160018114620007a057600084156200078b578287015190505b6200079785826200070a565b86555062000807565b601f198416620007b0866200054c565b60005b82811015620007da57848901518255600182019150602085019450602081019050620007b3565b86831015620007fa5784890151620007f6601f891682620006ea565b8355505b6001600288020188555050505b505050505050565b6126c4806200081f6000396000f3fe608060405234801561001057600080fd5b50600436106101375760003560e01c806340c10f19116100b8578063a217fddf1161007c578063a217fddf1461039c578063a457c2d7146103ba578063a9059cbb146103ea578063d53913931461041a578063d547741f14610438578063dd62ed3e1461045457610137565b806340c10f19146102be57806370a08231146102ee57806391d148541461031e57806395d89b411461034e5780639dc29fac1461036c57610137565b8063248a9ca3116100ff578063248a9ca3146102085780632f2ff15d14610238578063313ce5671461025457806336568abe14610272578063395093511461028e57610137565b806301ffc9a71461013c57806306fdde031461016c578063095ea7b31461018a57806318160ddd146101ba57806323b872dd146101d8575b600080fd5b61015660048036038101906101519190611abe565b610484565b6040516101639190611b06565b60405180910390f35b6101746104fe565b6040516101819190611bb1565b60405180910390f35b6101a4600480360381019061019f9190611c67565b610590565b6040516101b19190611b06565b60405180910390f35b6101c26106f0565b6040516101cf9190611cb6565b60405180910390f35b6101f260048036038101906101ed9190611cd1565b6106fa565b6040516101ff9190611b06565b60405180910390f35b610222600480360381019061021d9190611d5a565b6109eb565b60405161022f9190611d96565b60405180910390f35b610252600480360381019061024d9190611db1565b610a0a565b005b61025c610a2b565b6040516102699190611cb6565b60405180910390f35b61028c60048036038101906102879190611db1565b610a35565b005b6102a860048036038101906102a39190611c67565b610ab8565b6040516102b59190611b06565b60405180910390f35b6102d860048036038101906102d39190611c67565b610b56565b6040516102e59190611b06565b60405180910390f35b61030860048036038101906103039190611df1565b610d0f565b6040516103159190611cb6565b60405180910390f35b61033860048036038101906103339190611db1565b610d58565b6040516103459190611b06565b60405180910390f35b610356610dc2565b6040516103639190611bb1565b60405180910390f35b61038660048036038101906103819190611c67565b610e54565b6040516103939190611b06565b60405180910390f35b6103a4611020565b6040516103b19190611d96565b60405180910390f35b6103d460048036038101906103cf9190611c67565b611027565b6040516103e19190611b06565b60405180910390f35b61040460048036038101906103ff9190611c67565b61110d565b6040516104119190611b06565b60405180910390f35b61042261131b565b60405161042f9190611d96565b60405180910390f35b610452600480360381019061044d9190611db1565b61133f565b005b61046e60048036038101906104699190611e1e565b611360565b60405161047b9190611cb6565b60405180910390f35b60007f7965db0b000000000000000000000000000000000000000000000000000000007bffffffffffffffffffffffffffffffffffffffffffffffffffffffff1916827bffffffffffffffffffffffffffffffffffffffffffffffffffffffff191614806104f757506104f6826113e7565b5b9050919050565b60606001805461050d90611e8d565b80601f016020809104026020016040519081016040528092919081815260200182805461053990611e8d565b80156105865780601f1061055b57610100808354040283529160200191610586565b820191906000526020600020905b81548152906001019060200180831161056957829003601f168201915b5050505050905090565b60008073ffffffffffffffffffffffffffffffffffffffff168373ffffffffffffffffffffffffffffffffffffffff1603610600576040517f08c379a00000000000000000000000000000000000000000000000000000000081526004016105f790611f0a565b60405180910390fd5b81600760003373ffffffffffffffffffffffffffffffffffffffff1673ffffffffffffffffffffffffffffffffffffffff16815260200190815260200160002060008573ffffffffffffffffffffffffffffffffffffffff1673ffffffffffffffffffffffffffffffffffffffff168152602001908152602001600020819055508273ffffffffffffffffffffffffffffffffffffffff163373ffffffffffffffffffffffffffffffffffffffff167f8c5be1e5ebec7d5bd14f71427d1e84f3dd0314c0f7b2291e5b200ac8c7c3b925846040516106de9190611cb6565b60405180910390a36001905092915050565b6000600354905090565b600081600660008673ffffffffffffffffffffffffffffffffffffffff1673ffffffffffffffffffffffffffffffffffffffff168152602001908152602001600020541161077d576040517f08c379a000000000000000000000000000000000000000000000000000000000815260040161077490611f76565b60405180910390fd5b81600760008673ffffffffffffffffffffffffffffffffffffffff1673ffffffffffffffffffffffffffffffffffffffff16815260200190815260200160002060003373ffffffffffffffffffffffffffffffffffffffff1673ffffffffffffffffffffffffffffffffffffffff16815260200190815260200160002054101561083c576040517f08c379a000000000000000000000000000000000000000000000000000000000815260040161083390612008565b60405180910390fd5b81600760008673ffffffffffffffffffffffffffffffffffffffff1673ffffffffffffffffffffffffffffffffffffffff16815260200190815260200160002060003373ffffffffffffffffffffffffffffffffffffffff1673ffffffffffffffffffffffffffffffffffffffff16815260200190815260200160002060008282546108c89190612057565b9250508190555081600660008673ffffffffffffffffffffffffffffffffffffffff1673ffffffffffffffffffffffffffffffffffffffff168152602001908152602001600020600082825461091e9190612057565b9250508190555081600660008573ffffffffffffffffffffffffffffffffffffffff1673ffffffffffffffffffffffffffffffffffffffff1681526020019081526020016000206000828254610974919061208b565b925050819055508273ffffffffffffffffffffffffffffffffffffffff168473ffffffffffffffffffffffffffffffffffffffff167fddf252ad1be2c89b69c2b068fc378daa952ba7f163c4a11628f55a4df523b3ef846040516109d89190611cb6565b60405180910390a3600190509392505050565b6000806000838152602001908152602001600020600101549050919050565b610a13826109eb565b610a1c81611451565b610a268383611465565b505050565b6000600454905090565b610a3d611545565b73ffffffffffffffffffffffffffffffffffffffff168173ffffffffffffffffffffffffffffffffffffffff1614610aaa576040517f08c379a0000000000000000000000000000000000000000000000000000000008152600401610aa190612131565b60405180910390fd5b610ab4828261154d565b5050565b6000610b4c338484600760003373ffffffffffffffffffffffffffffffffffffffff1673ffffffffffffffffffffffffffffffffffffffff16815260200190815260200160002060008873ffffffffffffffffffffffffffffffffffffffff1673ffffffffffffffffffffffffffffffffffffffff16815260200190815260200160002054610b47919061208b565b61162e565b6001905092915050565b6000610b827f9f2df0fed2c77648de5860a4cc508cd0818c85b8b8a1ab4ceeef8d981c8956a633610d58565b610bc1576040517f08c379a0000000000000000000000000000000000000000000000000000000008152600401610bb89061219d565b60405180910390fd5b600073ffffffffffffffffffffffffffffffffffffffff168373ffffffffffffffffffffffffffffffffffffffff1603610c30576040517f08c379a0000000000000000000000000000000000000000000000000000000008152600401610c2790612209565b60405180910390fd5b81600660008573ffffffffffffffffffffffffffffffffffffffff1673ffffffffffffffffffffffffffffffffffffffff1681526020019081526020016000206000828254610c7f919061208b565b925050819055508160036000828254610c98919061208b565b92505081905550600073ffffffffffffffffffffffffffffffffffffffff168373ffffffffffffffffffffffffffffffffffffffff167fddf252ad1be2c89b69c2b068fc378daa952ba7f163c4a11628f55a4df523b3ef84604051610cfd9190611cb6565b60405180910390a36001905092915050565b6000600660008373ffffffffffffffffffffffffffffffffffffffff1673ffffffffffffffffffffffffffffffffffffffff168152602001908152602001600020549050919050565b600080600084815260200190815260200160002060000160008373ffffffffffffffffffffffffffffffffffffffff1673ffffffffffffffffffffffffffffffffffffffff16815260200190815260200160002060009054906101000a900460ff16905092915050565b606060028054610dd190611e8d565b80601f0160208091040260200160405190810160405280929190818152602001828054610dfd90611e8d565b8015610e4a5780601f10610e1f57610100808354040283529160200191610e4a565b820191906000526020600020905b815481529060010190602001808311610e2d57829003601f168201915b5050505050905090565b6000610e807f9f2df0fed2c77648de5860a4cc508cd0818c85b8b8a1ab4ceeef8d981c8956a633610d58565b610ebf576040517f08c379a0000000000000000000000000000000000000000000000000000000008152600401610eb69061219d565b60405180910390fd5b81600660008573ffffffffffffffffffffffffffffffffffffffff1673ffffffffffffffffffffffffffffffffffffffff168152602001908152602001600020541015610f41576040517f08c379a0000000000000000000000000000000000000000000000000000000008152600401610f389061229b565b60405180910390fd5b81600660008573ffffffffffffffffffffffffffffffffffffffff1673ffffffffffffffffffffffffffffffffffffffff1681526020019081526020016000206000828254610f909190612057565b925050819055508160036000828254610fa99190612057565b92505081905550600073ffffffffffffffffffffffffffffffffffffffff168373ffffffffffffffffffffffffffffffffffffffff167fddf252ad1be2c89b69c2b068fc378daa952ba7f163c4a11628f55a4df523b3ef8460405161100e9190611cb6565b60405180910390a36001905092915050565b6000801b81565b600080600760003373ffffffffffffffffffffffffffffffffffffffff1673ffffffffffffffffffffffffffffffffffffffff16815260200190815260200160002060008573ffffffffffffffffffffffffffffffffffffffff1673ffffffffffffffffffffffffffffffffffffffff168152602001908152602001600020549050828110156110ec576040517f08c379a00000000000000000000000000000000000000000000000000000000081526004016110e39061232d565b60405180910390fd5b611102338585846110fd9190612057565b61162e565b600191505092915050565b600081600660003373ffffffffffffffffffffffffffffffffffffffff1673ffffffffffffffffffffffffffffffffffffffff168152602001908152602001600020541015611191576040517f08c379a0000000000000000000000000000000000000000000000000000000008152600401611188906123bf565b60405180910390fd5b600073ffffffffffffffffffffffffffffffffffffffff168373ffffffffffffffffffffffffffffffffffffffff1603611200576040517f08c379a00000000000000000000000000000000000000000000000000000000081526004016111f79061242b565b60405180910390fd5b81600660003373ffffffffffffffffffffffffffffffffffffffff1673ffffffffffffffffffffffffffffffffffffffff168152602001908152602001600020600082825461124f9190612057565b9250508190555081600660008573ffffffffffffffffffffffffffffffffffffffff1673ffffffffffffffffffffffffffffffffffffffff16815260200190815260200160002060008282546112a5919061208b565b925050819055508273ffffffffffffffffffffffffffffffffffffffff163373ffffffffffffffffffffffffffffffffffffffff167fddf252ad1be2c89b69c2b068fc378daa952ba7f163c4a11628f55a4df523b3ef846040516113099190611cb6565b60405180910390a36001905092915050565b7f9f2df0fed2c77648de5860a4cc508cd0818c85b8b8a1ab4ceeef8d981c8956a681565b611348826109eb565b61135181611451565b61135b838361154d565b505050565b6000600760008473ffffffffffffffffffffffffffffffffffffffff1673ffffffffffffffffffffffffffffffffffffffff16815260200190815260200160002060008373ffffffffffffffffffffffffffffffffffffffff1673ffffffffffffffffffffffffffffffffffffffff16815260200190815260200160002054905092915050565b60007f01ffc9a7000000000000000000000000000000000000000000000000000000007bffffffffffffffffffffffffffffffffffffffffffffffffffffffff1916827bffffffffffffffffffffffffffffffffffffffffffffffffffffffff1916149050919050565b6114628161145d611545565b611788565b50565b61146f8282610d58565b61154157600160008084815260200190815260200160002060000160008373ffffffffffffffffffffffffffffffffffffffff1673ffffffffffffffffffffffffffffffffffffffff16815260200190815260200160002060006101000a81548160ff0219169083151502179055506114e6611545565b73ffffffffffffffffffffffffffffffffffffffff168173ffffffffffffffffffffffffffffffffffffffff16837f2f8788117e7eff1d82e926ec794901d17c78024a50270940304540a733656f0d60405160405180910390a45b5050565b600033905090565b6115578282610d58565b1561162a57600080600084815260200190815260200160002060000160008373ffffffffffffffffffffffffffffffffffffffff1673ffffffffffffffffffffffffffffffffffffffff16815260200190815260200160002060006101000a81548160ff0219169083151502179055506115cf611545565b73ffffffffffffffffffffffffffffffffffffffff168173ffffffffffffffffffffffffffffffffffffffff16837ff6391f5c32d9c69d2a47ea670b442974b53935d1edc7fd64eb21e047a839171b60405160405180910390a45b5050565b600073ffffffffffffffffffffffffffffffffffffffff168273ffffffffffffffffffffffffffffffffffffffff160361169d576040517f08c379a000000000000000000000000000000000000000000000000000000000815260040161169490611f0a565b60405180910390fd5b80600760008573ffffffffffffffffffffffffffffffffffffffff1673ffffffffffffffffffffffffffffffffffffffff16815260200190815260200160002060008473ffffffffffffffffffffffffffffffffffffffff1673ffffffffffffffffffffffffffffffffffffffff168152602001908152602001600020819055508173ffffffffffffffffffffffffffffffffffffffff168373ffffffffffffffffffffffffffffffffffffffff167f8c5be1e5ebec7d5bd14f71427d1e84f3dd0314c0f7b2291e5b200ac8c7c3b9258360405161177b9190611cb6565b60405180910390a3505050565b6117928282610d58565b611821576117b78173ffffffffffffffffffffffffffffffffffffffff166014611825565b6117c58360001c6020611825565b6040516020016117d692919061251f565b6040516020818303038152906040526040517f08c379a00000000000000000000000000000000000000000000000000000000081526004016118189190611bb1565b60405180910390fd5b5050565b6060600060028360026118389190612559565b611842919061208b565b67ffffffffffffffff81111561185b5761185a61259b565b5b6040519080825280601f01601f19166020018201604052801561188d5781602001600182028036833780820191505090505b5090507f3000000000000000000000000000000000000000000000000000000000000000816000815181106118c5576118c46125ca565b5b60200101907effffffffffffffffffffffffffffffffffffffffffffffffffffffffffffff1916908160001a9053507f780000000000000000000000000000000000000000000000000000000000000081600181518110611929576119286125ca565b5b60200101907effffffffffffffffffffffffffffffffffffffffffffffffffffffffffffff1916908160001a905350600060018460026119699190612559565b611973919061208b565b90505b6001811115611a13577f3031323334353637383961626364656600000000000000000000000000000000600f8616601081106119b5576119b46125ca565b5b1a60f81b8282815181106119cc576119cb6125ca565b5b60200101907effffffffffffffffffffffffffffffffffffffffffffffffffffffffffffff1916908160001a905350600485901c945080611a0c906125f9565b9050611976565b5060008414611a57576040517f08c379a0000000000000000000000000000000000000000000000000000000008152600401611a4e9061266e565b60405180910390fd5b8091505092915050565b600080fd5b60007fffffffff0000000000000000000000000000000000000000000000000000000082169050919050565b611a9b81611a66565b8114611aa657600080fd5b50565b600081359050611ab881611a92565b92915050565b600060208284031215611ad457611ad3611a61565b5b6000611ae284828501611aa9565b91505092915050565b60008115159050919050565b611b0081611aeb565b82525050565b6000602082019050611b1b6000830184611af7565b92915050565b600081519050919050565b600082825260208201905092915050565b60005b83811015611b5b578082015181840152602081019050611b40565b60008484015250505050565b6000601f19601f8301169050919050565b6000611b8382611b21565b611b8d8185611b2c565b9350611b9d818560208601611b3d565b611ba681611b67565b840191505092915050565b60006020820190508181036000830152611bcb8184611b78565b905092915050565b600073ffffffffffffffffffffffffffffffffffffffff82169050919050565b6000611bfe82611bd3565b9050919050565b611c0e81611bf3565b8114611c1957600080fd5b50565b600081359050611c2b81611c05565b92915050565b6000819050919050565b611c4481611c31565b8114611c4f57600080fd5b50565b600081359050611c6181611c3b565b92915050565b60008060408385031215611c7e57611c7d611a61565b5b6000611c8c85828601611c1c565b9250506020611c9d85828601611c52565b9150509250929050565b611cb081611c31565b82525050565b6000602082019050611ccb6000830184611ca7565b92915050565b600080600060608486031215611cea57611ce9611a61565b5b6000611cf886828701611c1c565b9350506020611d0986828701611c1c565b9250506040611d1a86828701611c52565b9150509250925092565b6000819050919050565b611d3781611d24565b8114611d4257600080fd5b50565b600081359050611d5481611d2e565b92915050565b600060208284031215611d7057611d6f611a61565b5b6000611d7e84828501611d45565b91505092915050565b611d9081611d24565b82525050565b6000602082019050611dab6000830184611d87565b92915050565b60008060408385031215611dc857611dc7611a61565b5b6000611dd685828601611d45565b9250506020611de785828601611c1c565b9150509250929050565b600060208284031215611e0757611e06611a61565b5b6000611e1584828501611c1c565b91505092915050565b60008060408385031215611e3557611e34611a61565b5b6000611e4385828601611c1c565b9250506020611e5485828601611c1c565b9150509250929050565b7f4e487b7100000000000000000000000000000000000000000000000000000000600052602260045260246000fd5b60006002820490506001821680611ea557607f821691505b602082108103611eb857611eb7611e5e565b5b50919050565b7f45524332303a207a65726f206164647265737300000000000000000000000000600082015250565b6000611ef4601383611b2c565b9150611eff82611ebe565b602082019050919050565b60006020820190508181036000830152611f2381611ee7565b9050919050565b7f53656e6465722062616c616e636520697320746f6f206c6f7700000000000000600082015250565b6000611f60601983611b2c565b9150611f6b82611f2a565b602082019050919050565b60006020820190508181036000830152611f8f81611f53565b9050919050565b7f53656e64657220616c6c6f77616e63652069732062656c6f772074686520766160008201527f6c7565206e656564656400000000000000000000000000000000000000000000602082015250565b6000611ff2602a83611b2c565b9150611ffd82611f96565b604082019050919050565b6000602082019050818103600083015261202181611fe5565b9050919050565b7f4e487b7100000000000000000000000000000000000000000000000000000000600052601160045260246000fd5b600061206282611c31565b915061206d83611c31565b925082820390508181111561208557612084612028565b5b92915050565b600061209682611c31565b91506120a183611c31565b92508282019050808211156120b9576120b8612028565b5b92915050565b7f416363657373436f6e74726f6c3a2063616e206f6e6c792072656e6f756e636560008201527f20726f6c657320666f722073656c660000000000000000000000000000000000602082015250565b600061211b602f83611b2c565b9150612126826120bf565b604082019050919050565b6000602082019050818103600083015261214a8161210e565b9050919050565b7f43616c6c6572206973206e6f742061206d696e74657200000000000000000000600082015250565b6000612187601683611b2c565b915061219282612151565b602082019050919050565b600060208201905081810360008301526121b68161217a565b9050919050565b7f45524332303a206d696e7420746f20746865207a65726f206164647265737300600082015250565b60006121f3601f83611b2c565b91506121fe826121bd565b602082019050919050565b60006020820190508181036000830152612222816121e6565b9050919050565b7f5468652062616c616e6365206973206c657373207468616e206275726e696e6760008201527f20616d6f756e7400000000000000000000000000000000000000000000000000602082015250565b6000612285602783611b2c565b915061229082612229565b604082019050919050565b600060208201905081810360008301526122b481612278565b9050919050565b7f45524332303a2064656372656173656420616c6c6f77616e63652062656c6f7760008201527f207a65726f000000000000000000000000000000000000000000000000000000602082015250565b6000612317602583611b2c565b9150612322826122bb565b604082019050919050565b600060208201905081810360008301526123468161230a565b9050919050565b7f53656e64657220646f6573206e6f74206861766520656e6f756768206d6f6e6560008201527f7900000000000000000000000000000000000000000000000000000000000000602082015250565b60006123a9602183611b2c565b91506123b48261234d565b604082019050919050565b600060208201905081810360008301526123d88161239c565b9050919050565b7f4164647265737320697320726571756972656400000000000000000000000000600082015250565b6000612415601383611b2c565b9150612420826123df565b602082019050919050565b6000602082019050818103600083015261244481612408565b9050919050565b600081905092915050565b7f416363657373436f6e74726f6c3a206163636f756e7420000000000000000000600082015250565b600061248c60178361244b565b915061249782612456565b601782019050919050565b60006124ad82611b21565b6124b7818561244b565b93506124c7818560208601611b3d565b80840191505092915050565b7f206973206d697373696e6720726f6c6520000000000000000000000000000000600082015250565b600061250960118361244b565b9150612514826124d3565b601182019050919050565b600061252a8261247f565b915061253682856124a2565b9150612541826124fc565b915061254d82846124a2565b91508190509392505050565b600061256482611c31565b915061256f83611c31565b925082820261257d81611c31565b9150828204841483151761259457612593612028565b5b5092915050565b7f4e487b7100000000000000000000000000000000000000000000000000000000600052604160045260246000fd5b7f4e487b7100000000000000000000000000000000000000000000000000000000600052603260045260246000fd5b600061260482611c31565b91506000820361261757612616612028565b5b600182039050919050565b7f537472696e67733a20686578206c656e67746820696e73756666696369656e74600082015250565b6000612658602083611b2c565b915061266382612622565b602082019050919050565b600060208201905081810360008301526126878161264b565b905091905056fea2646970667358221220f17016634b26d4b23f9475d68d31ac6c97db65206c12408157d014c0f878974664736f6c63430008110033",
    "linkReferences": {},
    "deployedLinkReferences": {}
}